{
  "abi": [
    {
      "inputs": [
        {
          "internalType": "uint8",
          "name": "_decimals",
          "type": "uint8"
        },
        {
          "internalType": "int256",
          "name": "_initialAnswer",
          "type": "int256"
        }
      ],
      "stateMutability": "nonpayable",
      "type": "constructor"
    },
    {
      "anonymous": false,
      "inputs": [
        {
          "indexed": true,
          "internalType": "int256",
          "name": "current",
          "type": "int256"
        },
        {
          "indexed": true,
          "internalType": "uint256",
          "name": "roundId",
          "type": "uint256"
        },
        {
          "indexed": false,
          "internalType": "uint256",
          "name": "updatedAt",
          "type": "uint256"
        }
      ],
      "name": "AnswerUpdated",
      "type": "event"
    },
    {
      "anonymous": false,
      "inputs": [
        {
          "indexed": true,
          "internalType": "uint256",
          "name": "roundId",
          "type": "uint256"
        },
        {
          "indexed": true,
          "internalType": "address",
          "name": "startedBy",
          "type": "address"
        },
        {
          "indexed": false,
          "internalType": "uint256",
          "name": "startedAt",
          "type": "uint256"
        }
      ],
      "name": "NewRound",
      "type": "event"
    },
    {
      "inputs": [],
      "name": "decimals",
      "outputs": [
        {
          "internalType": "uint8",
          "name": "",
          "type": "uint8"
        }
      ],
      "stateMutability": "view",
      "type": "function"
    },
    {
      "inputs": [],
      "name": "description",
      "outputs": [
        {
          "internalType": "string",
          "name": "",
          "type": "string"
        }
      ],
      "stateMutability": "view",
      "type": "function"
    },
    {
      "inputs": [
        {
          "internalType": "uint256",
          "name": "",
          "type": "uint256"
        }
      ],
      "name": "getAnswer",
      "outputs": [
        {
          "internalType": "int256",
          "name": "",
          "type": "int256"
        }
      ],
      "stateMutability": "view",
      "type": "function"
    },
    {
      "inputs": [
        {
          "internalType": "uint80",
          "name": "_roundId",
          "type": "uint80"
        }
      ],
      "name": "getRoundData",
      "outputs": [
        {
          "internalType": "uint80",
          "name": "roundId",
          "type": "uint80"
        },
        {
          "internalType": "int256",
          "name": "answer",
          "type": "int256"
        },
        {
          "internalType": "uint256",
          "name": "startedAt",
          "type": "uint256"
        },
        {
          "internalType": "uint256",
          "name": "updatedAt",
          "type": "uint256"
        },
        {
          "internalType": "uint80",
          "name": "answeredInRound",
          "type": "uint80"
        }
      ],
      "stateMutability": "view",
      "type": "function"
    },
    {
      "inputs": [
        {
          "internalType": "uint256",
          "name": "",
          "type": "uint256"
        }
      ],
      "name": "getTimestamp",
      "outputs": [
        {
          "internalType": "uint256",
          "name": "",
          "type": "uint256"
        }
      ],
      "stateMutability": "view",
      "type": "function"
    },
    {
      "inputs": [],
      "name": "latestAnswer",
      "outputs": [
        {
          "internalType": "int256",
          "name": "",
          "type": "int256"
        }
      ],
      "stateMutability": "view",
      "type": "function"
    },
    {
      "inputs": [],
      "name": "latestRound",
      "outputs": [
        {
          "internalType": "uint256",
          "name": "",
          "type": "uint256"
        }
      ],
      "stateMutability": "view",
      "type": "function"
    },
    {
      "inputs": [],
      "name": "latestRoundData",
      "outputs": [
        {
          "internalType": "uint80",
          "name": "roundId",
          "type": "uint80"
        },
        {
          "internalType": "int256",
          "name": "answer",
          "type": "int256"
        },
        {
          "internalType": "uint256",
          "name": "startedAt",
          "type": "uint256"
        },
        {
          "internalType": "uint256",
          "name": "updatedAt",
          "type": "uint256"
        },
        {
          "internalType": "uint80",
          "name": "answeredInRound",
          "type": "uint80"
        }
      ],
      "stateMutability": "view",
      "type": "function"
    },
    {
      "inputs": [],
      "name": "latestTimestamp",
      "outputs": [
        {
          "internalType": "uint256",
          "name": "",
          "type": "uint256"
        }
      ],
      "stateMutability": "view",
      "type": "function"
    },
    {
      "inputs": [
        {
          "internalType": "int256",
          "name": "_answer",
          "type": "int256"
        }
      ],
      "name": "updateAnswer",
      "outputs": [],
      "stateMutability": "nonpayable",
      "type": "function"
    },
    {
      "inputs": [
        {
          "internalType": "uint80",
          "name": "_roundId",
          "type": "uint80"
        },
        {
          "internalType": "int256",
          "name": "_answer",
          "type": "int256"
        },
        {
          "internalType": "uint256",
          "name": "_timestamp",
          "type": "uint256"
        },
        {
          "internalType": "uint256",
          "name": "_startedAt",
          "type": "uint256"
        }
      ],
      "name": "updateRoundData",
      "outputs": [],
      "stateMutability": "nonpayable",
      "type": "function"
    },
    {
      "inputs": [],
      "name": "version",
      "outputs": [
        {
          "internalType": "uint256",
          "name": "",
          "type": "uint256"
        }
      ],
      "stateMutability": "view",
      "type": "function"
    }
  ],
  "bytecode": "608060405234801561001057600080fd5b506040516104df3803806104df8339818101604052604081101561003357600080fd5b5080516020909101516000805460ff191660ff84161790556100548161005b565b50506100a2565b600181815542600281905560038054909201808355600090815260046020908152604080832095909555835482526005815284822083905592548152600690925291902055565b61042e806100b16000396000f3fe608060405234801561001057600080fd5b50600436106100b45760003560e01c80638205bf6a116100715780638205bf6a146101b85780639a6fc8f5146101c0578063a87a20ce1461022a578063b5ab58dc14610247578063b633620c14610264578063feaf968c14610281576100b4565b8063313ce567146100b95780634aa2011f146100d757806350d25bcd1461011157806354fd4d501461012b578063668a0f02146101335780637284e4161461013b575b600080fd5b6100c1610289565b6040805160ff9092168252519081900360200190f35b61010f600480360360808110156100ed57600080fd5b506001600160501b038135169060208101359060408101359060600135610292565b005b6101196102dc565b60408051918252519081900360200190f35b6101196102e2565b6101196102e7565b6101436102ed565b6040805160208082528351818301528351919283929083019185019080838360005b8381101561017d578181015183820152602001610165565b50505050905090810190601f1680156101aa5780820380516001836020036101000a031916815260200191505b509250505060405180910390f35b610119610324565b6101e6600480360360208110156101d657600080fd5b50356001600160501b031661032a565b60405180866001600160501b03168152602001858152602001848152602001838152602001826001600160501b031681526020019550505050505060405180910390f35b61010f6004803603602081101561024057600080fd5b5035610360565b6101196004803603602081101561025d57600080fd5b50356103a7565b6101196004803603602081101561027a57600080fd5b50356103b9565b6101e66103cb565b60005460ff1681565b6001600160501b0390931660038181556001849055600283905560009182526004602090815260408084209590955581548352600581528483209390935554815260069091522055565b60015481565b600081565b60035481565b60408051808201909152601f81527f76302e362f74657374732f4d6f636b563341676772656761746f722e736f6c00602082015290565b60025481565b6001600160501b038116600090815260046020908152604080832054600683528184205460059093529220549293919290918490565b600181815542600281905560038054909201808355600090815260046020908152604080832095909555835482526005815284822083905592548152600690925291902055565b60046020526000908152604090205481565b60056020526000908152604090205481565b6003546000818152600460209081526040808320546006835281842054600590935292205483909192939456fea2646970667358221220ca5e789097b0f13af6d8ae4389fc3da5ee7837d349e34d4c133b74d2c599fcd764736f6c634300060c0033",
  "bytecodeSha1": "9e734e161b5cafcca52a917f10266f5a8bc05b28",
  "compiler": {
    "evm_version": "istanbul",
    "optimizer": {
      "enabled": true,
      "runs": 200
    },
    "version": "0.6.12+commit.27d51765"
  },
  "contractName": "MockV3Aggregator",
  "language": "Solidity",
  "natspec": {
    "kind": "dev",
    "methods": {},
    "notice": "Based on the FluxAggregator contractUse this contract when you need to test other contract's ability to read data from an aggregator contract, but how the aggregator got its answer is unimportant",
    "title": "MockV3Aggregator",
    "version": 1
  },
  "opcodes": "PUSH1 0x80 PUSH1 0x40 MSTORE CALLVALUE DUP1 ISZERO PUSH2 0x10 JUMPI PUSH1 0x0 DUP1 REVERT JUMPDEST POP PUSH1 0x4 CALLDATASIZE LT PUSH2 0xB4 JUMPI PUSH1 0x0 CALLDATALOAD PUSH1 0xE0 SHR DUP1 PUSH4 0x8205BF6A GT PUSH2 0x71 JUMPI DUP1 PUSH4 0x8205BF6A EQ PUSH2 0x1B8 JUMPI DUP1 PUSH4 0x9A6FC8F5 EQ PUSH2 0x1C0 JUMPI DUP1 PUSH4 0xA87A20CE EQ PUSH2 0x22A JUMPI DUP1 PUSH4 0xB5AB58DC EQ PUSH2 0x247 JUMPI DUP1 PUSH4 0xB633620C EQ PUSH2 0x264 JUMPI DUP1 PUSH4 0xFEAF968C EQ PUSH2 0x281 JUMPI PUSH2 0xB4 JUMP JUMPDEST DUP1 PUSH4 0x313CE567 EQ PUSH2 0xB9 JUMPI DUP1 PUSH4 0x4AA2011F EQ PUSH2 0xD7 JUMPI DUP1 PUSH4 0x50D25BCD EQ PUSH2 0x111 JUMPI DUP1 PUSH4 0x54FD4D50 EQ PUSH2 0x12B JUMPI DUP1 PUSH4 0x668A0F02 EQ PUSH2 0x133 JUMPI DUP1 PUSH4 0x7284E416 EQ PUSH2 0x13B JUMPI JUMPDEST PUSH1 0x0 DUP1 REVERT JUMPDEST PUSH2 0xC1 PUSH2 0x289 JUMP JUMPDEST PUSH1 0x40 DUP1 MLOAD PUSH1 0xFF SWAP1 SWAP3 AND DUP3 MSTORE MLOAD SWAP1 DUP2 SWAP1 SUB PUSH1 0x20 ADD SWAP1 RETURN JUMPDEST PUSH2 0x10F PUSH1 0x4 DUP1 CALLDATASIZE SUB PUSH1 0x80 DUP2 LT ISZERO PUSH2 0xED JUMPI PUSH1 0x0 DUP1 REVERT JUMPDEST POP PUSH1 0x1 PUSH1 0x1 PUSH1 0x50 SHL SUB DUP2 CALLDATALOAD AND SWAP1 PUSH1 0x20 DUP2 ADD CALLDATALOAD SWAP1 PUSH1 0x40 DUP2 ADD CALLDATALOAD SWAP1 PUSH1 0x60 ADD CALLDATALOAD PUSH2 0x292 JUMP JUMPDEST STOP JUMPDEST PUSH2 0x119 PUSH2 0x2DC JUMP JUMPDEST PUSH1 0x40 DUP1 MLOAD SWAP2 DUP3 MSTORE MLOAD SWAP1 DUP2 SWAP1 SUB PUSH1 0x20 ADD SWAP1 RETURN JUMPDEST PUSH2 0x119 PUSH2 0x2E2 JUMP JUMPDEST PUSH2 0x119 PUSH2 0x2E7 JUMP JUMPDEST PUSH2 0x143 PUSH2 0x2ED JUMP JUMPDEST PUSH1 0x40 DUP1 MLOAD PUSH1 0x20 DUP1 DUP3 MSTORE DUP4 MLOAD DUP2 DUP4 ADD MSTORE DUP4 MLOAD SWAP2 SWAP3 DUP4 SWAP3 SWAP1 DUP4 ADD SWAP2 DUP6 ADD SWAP1 DUP1 DUP4 DUP4 PUSH1 0x0 JUMPDEST DUP4 DUP2 LT ISZERO PUSH2 0x17D JUMPI DUP2 DUP2 ADD MLOAD DUP4 DUP3 ADD MSTORE PUSH1 0x20 ADD PUSH2 0x165 JUMP JUMPDEST POP POP POP POP SWAP1 POP SWAP1 DUP2 ADD SWAP1 PUSH1 0x1F AND DUP1 ISZERO PUSH2 0x1AA JUMPI DUP1 DUP3 SUB DUP1 MLOAD PUSH1 0x1 DUP4 PUSH1 0x20 SUB PUSH2 0x100 EXP SUB NOT AND DUP2 MSTORE PUSH1 0x20 ADD SWAP2 POP JUMPDEST POP SWAP3 POP POP POP PUSH1 0x40 MLOAD DUP1 SWAP2 SUB SWAP1 RETURN JUMPDEST PUSH2 0x119 PUSH2 0x324 JUMP JUMPDEST PUSH2 0x1E6 PUSH1 0x4 DUP1 CALLDATASIZE SUB PUSH1 0x20 DUP2 LT ISZERO PUSH2 0x1D6 JUMPI PUSH1 0x0 DUP1 REVERT JUMPDEST POP CALLDATALOAD PUSH1 0x1 PUSH1 0x1 PUSH1 0x50 SHL SUB AND PUSH2 0x32A JUMP JUMPDEST PUSH1 0x40 MLOAD DUP1 DUP7 PUSH1 0x1 PUSH1 0x1 PUSH1 0x50 SHL SUB AND DUP2 MSTORE PUSH1 0x20 ADD DUP6 DUP2 MSTORE PUSH1 0x20 ADD DUP5 DUP2 MSTORE PUSH1 0x20 ADD DUP4 DUP2 MSTORE PUSH1 0x20 ADD DUP3 PUSH1 0x1 PUSH1 0x1 PUSH1 0x50 SHL SUB AND DUP2 MSTORE PUSH1 0x20 ADD SWAP6 POP POP POP POP POP POP PUSH1 0x40 MLOAD DUP1 SWAP2 SUB SWAP1 RETURN JUMPDEST PUSH2 0x10F PUSH1 0x4 DUP1 CALLDATASIZE SUB PUSH1 0x20 DUP2 LT ISZERO PUSH2 0x240 JUMPI PUSH1 0x0 DUP1 REVERT JUMPDEST POP CALLDATALOAD PUSH2 0x360 JUMP JUMPDEST PUSH2 0x119 PUSH1 0x4 DUP1 CALLDATASIZE SUB PUSH1 0x20 DUP2 LT ISZERO PUSH2 0x25D JUMPI PUSH1 0x0 DUP1 REVERT JUMPDEST POP CALLDATALOAD PUSH2 0x3A7 JUMP JUMPDEST PUSH2 0x119 PUSH1 0x4 DUP1 CALLDATASIZE SUB PUSH1 0x20 DUP2 LT ISZERO PUSH2 0x27A JUMPI PUSH1 0x0 DUP1 REVERT JUMPDEST POP CALLDATALOAD PUSH2 0x3B9 JUMP JUMPDEST PUSH2 0x1E6 PUSH2 0x3CB JUMP JUMPDEST PUSH1 0x0 SLOAD PUSH1 0xFF AND DUP2 JUMP JUMPDEST PUSH1 0x1 PUSH1 0x1 PUSH1 0x50 SHL SUB SWAP1 SWAP4 AND PUSH1 0x3 DUP2 DUP2 SSTORE PUSH1 0x1 DUP5 SWAP1 SSTORE PUSH1 0x2 DUP4 SWAP1 SSTORE PUSH1 0x0 SWAP2 DUP3 MSTORE PUSH1 0x4 PUSH1 0x20 SWAP1 DUP2 MSTORE PUSH1 0x40 DUP1 DUP5 KECCAK256 SWAP6 SWAP1 SWAP6 SSTORE DUP2 SLOAD DUP4 MSTORE PUSH1 0x5 DUP2 MSTORE DUP5 DUP4 KECCAK256 SWAP4 SWAP1 SWAP4 SSTORE SLOAD DUP2 MSTORE PUSH1 0x6 SWAP1 SWAP2 MSTORE KECCAK256 SSTORE JUMP JUMPDEST PUSH1 0x1 SLOAD DUP2 JUMP JUMPDEST PUSH1 0x0 DUP2 JUMP JUMPDEST PUSH1 0x3 SLOAD DUP2 JUMP JUMPDEST PUSH1 0x40 DUP1 MLOAD DUP1 DUP3 ADD SWAP1 SWAP2 MSTORE PUSH1 0x1F DUP2 MSTORE PUSH32 0x76302E362F74657374732F4D6F636B563341676772656761746F722E736F6C00 PUSH1 0x20 DUP3 ADD MSTORE SWAP1 JUMP JUMPDEST PUSH1 0x2 SLOAD DUP2 JUMP JUMPDEST PUSH1 0x1 PUSH1 0x1 PUSH1 0x50 SHL SUB DUP2 AND PUSH1 0x0 SWAP1 DUP2 MSTORE PUSH1 0x4 PUSH1 0x20 SWAP1 DUP2 MSTORE PUSH1 0x40 DUP1 DUP4 KECCAK256 SLOAD PUSH1 0x6 DUP4 MSTORE DUP2 DUP5 KECCAK256 SLOAD PUSH1 0x5 SWAP1 SWAP4 MSTORE SWAP3 KECCAK256 SLOAD SWAP3 SWAP4 SWAP2 SWAP3 SWAP1 SWAP2 DUP5 SWAP1 JUMP JUMPDEST PUSH1 0x1 DUP2 DUP2 SSTORE TIMESTAMP PUSH1 0x2 DUP2 SWAP1 SSTORE PUSH1 0x3 DUP1 SLOAD SWAP1 SWAP3 ADD DUP1 DUP4 SSTORE PUSH1 0x0 SWAP1 DUP2 MSTORE PUSH1 0x4 PUSH1 0x20 SWAP1 DUP2 MSTORE PUSH1 0x40 DUP1 DUP4 KECCAK256 SWAP6 SWAP1 SWAP6 SSTORE DUP4 SLOAD DUP3 MSTORE PUSH1 0x5 DUP2 MSTORE DUP5 DUP3 KECCAK256 DUP4 SWAP1 SSTORE SWAP3 SLOAD DUP2 MSTORE PUSH1 0x6 SWAP1 SWAP3 MSTORE SWAP2 SWAP1 KECCAK256 SSTORE JUMP JUMPDEST PUSH1 0x4 PUSH1 0x20 MSTORE PUSH1 0x0 SWAP1 DUP2 MSTORE PUSH1 0x40 SWAP1 KECCAK256 SLOAD DUP2 JUMP JUMPDEST PUSH1 0x5 PUSH1 0x20 MSTORE PUSH1 0x0 SWAP1 DUP2 MSTORE PUSH1 0x40 SWAP1 KECCAK256 SLOAD DUP2 JUMP JUMPDEST PUSH1 0x3 SLOAD PUSH1 0x0 DUP2 DUP2 MSTORE PUSH1 0x4 PUSH1 0x20 SWAP1 DUP2 MSTORE PUSH1 0x40 DUP1 DUP4 KECCAK256 SLOAD PUSH1 0x6 DUP4 MSTORE DUP2 DUP5 KECCAK256 SLOAD PUSH1 0x5 SWAP1 SWAP4 MSTORE SWAP3 KECCAK256 SLOAD DUP4 SWAP1 SWAP2 SWAP3 SWAP4 SWAP5 JUMP INVALID LOG2 PUSH5 0x6970667358 0x22 SLT KECCAK256 0xCA 0x5E PUSH25 0x9097B0F13AF6D8AE4389FC3DA5EE7837D349E34D4C133B74D2 0xC5 SWAP10 0xFC 0xD7 PUSH5 0x736F6C6343 STOP MOD 0xC STOP CALLER ",
  "sha1": "5541191ae5a1f641d6f96fa962c6405f41a9a6ea",
  "source": "// SPDX-License-Identifier: MIT\npragma solidity ^0.6.0;\n\nimport \"smartcontractkit/chainlink-brownie-contracts@1.0.2/contracts/src/v0.6/interfaces/AggregatorV2V3Interface.sol\";\n\n/**\n * @title MockV3Aggregator\n * @notice Based on the FluxAggregator contract\n * @notice Use this contract when you need to test\n * other contract's ability to read data from an\n * aggregator contract, but how the aggregator got\n * its answer is unimportant\n */\ncontract MockV3Aggregator is AggregatorV2V3Interface {\n  uint256 constant public override version = 0;\n\n  uint8 public override decimals;\n  int256 public override latestAnswer;\n  uint256 public override latestTimestamp;\n  uint256 public override latestRound;\n\n  mapping(uint256 => int256) public override getAnswer;\n  mapping(uint256 => uint256) public override getTimestamp;\n  mapping(uint256 => uint256) private getStartedAt;\n\n  constructor(\n    uint8 _decimals,\n    int256 _initialAnswer\n  ) public {\n    decimals = _decimals;\n    updateAnswer(_initialAnswer);\n  }\n\n  function updateAnswer(\n    int256 _answer\n  ) public {\n    latestAnswer = _answer;\n    latestTimestamp = block.timestamp;\n    latestRound++;\n    getAnswer[latestRound] = _answer;\n    getTimestamp[latestRound] = block.timestamp;\n    getStartedAt[latestRound] = block.timestamp;\n  }\n\n  function updateRoundData(\n    uint80 _roundId,\n    int256 _answer,\n    uint256 _timestamp,\n    uint256 _startedAt\n  ) public {\n    latestRound = _roundId;\n    latestAnswer = _answer;\n    latestTimestamp = _timestamp;\n    getAnswer[latestRound] = _answer;\n    getTimestamp[latestRound] = _timestamp;\n    getStartedAt[latestRound] = _startedAt;\n  }\n\n  function getRoundData(uint80 _roundId)\n    external\n    view\n    override\n    returns (\n      uint80 roundId,\n      int256 answer,\n      uint256 startedAt,\n      uint256 updatedAt,\n      uint80 answeredInRound\n    )\n  {\n    return (\n      _roundId,\n      getAnswer[_roundId],\n      getStartedAt[_roundId],\n      getTimestamp[_roundId],\n      _roundId\n    );\n  }\n\n  function latestRoundData()\n    external\n    view\n    override\n    returns (\n      uint80 roundId,\n      int256 answer,\n      uint256 startedAt,\n      uint256 updatedAt,\n      uint80 answeredInRound\n    )\n  {\n    return (\n      uint80(latestRound),\n      getAnswer[latestRound],\n      getStartedAt[latestRound],\n      getTimestamp[latestRound],\n      uint80(latestRound)\n    );\n  }\n\n  function description()\n    external\n    view\n    override\n    returns (string memory)\n  {\n    return \"v0.6/tests/MockV3Aggregator.sol\";\n  }\n}\n\n// MockOracle\n// Function signatures, event signatures, log topics",
  "sourcePath": "contracts/MockV3Aggregator.sol",
  "type": "contract"
}